:100000000C9494010C94BC010C94BC010C94BC01A4
:100010000C94BC010C94BC010C94BC010C94BC016C
:100020000C94620E0C94020D0C94BC010C94D00C38
:100030000C94AA0C0C94BC010C94BC010C94BC0153
:100040000C94BC010C944C0D0C94BC010C94BC01A0
:100050000C94BC0100003900360033003000000071
:10006000000200000000000000000504000700007E
:1000700000000000000000000000000000004154EB
:100080002B434C43430D0A002B434C43433A00415E
:10009000542B434855500D0A0041542B43504D53A7
:1000A0003F0D0A002B43504D533A0041542B434D12
:1000B00047443D000D0A000D0A0041542B434D47B3
:1000C000443D002C000D0A0041542B434D47523D46
:1000D000002B434D47523A002B434D47523A2030B4
:1000E0002C2C3000D0A0D0B5D0BBD0B53220D092CF
:1000F000D09AD09B00D0A0D0B5D0BBD0B53220D004
:1001000092D0ABD09AD09B0041542B4353510D0A4F
:10011000002B4353513A2000D0A0D0B5D0BBD0B56E
:100120003220D092D0ABD09AD09B00D0A0D0B5D006
:10013000BBD0B53220D092D09AD09B00D0A0D0B501
:10014000D0BBD0B53120D092D0ABD09AD09B0A0092
:10015000D0A0D0B5D0BBD0B53120D092D09AD09B12
:100160000A00250A00D0A1D0B5D182D18C2000D0C0
:100170009FD0B0D180D0BED0BBD18C3A2000D094DB
:10018000D0BED0B1D0B0D0B2D0BBD0B5D0BD3A0087
:10019000D0A3D0B4D0B0D0BBD0B5D0BD3A200023CE
:1001A000003F004572726F7200D0A1D0B1D180D0F3
:1001B000BED18100234F46462300234F4E230043E8
:1001C00053513F00474F5400D094D0BED181D182CB
:1001D000D183D0BF20D0BFD0BE20D181D0BFD0B876
:1001E000D181D0BAD1830041552300D094D0BED163
:1001F00081D182D183D0BFD0B5D0BD20D0B2D18142
:10020000D0B5D0BC00414123005057440054454C68
:10021000004653455423003132333423524553456D
:1002200054002B434D47533A000D0A3E000D0A007F
:1002300041542B434D47533D0020D09DD0B520D095
:10024000BDD0B0D0B9D0B4D0B5D0BD0020D0AFD1E2
:1002500087D0B5D0B9D0BAD0B000D0A0D0B5D0BB7F
:10026000D0B52C20D181D0B5D0BA200041542B4339
:10027000504D533F0D0A002B43504D533A0041540B
:100280002B43504D533D22534D222C22534D222CB3
:1002900022534D220D0A0041542B434E4D493D310E
:1002A0002C312C320D0A0041542B435245473D302E
:1002B0000D0A0041542B434D45453D310D0A004187
:1002C0005456310D0A00415445300D0A0041540D79
:1002D0000A0000003B0038003500320000003A0000
:1002E000370034003100020202020202020204045A
:1002F00004040404040403030303030303030101CC
:1003000001010101010101020408102040800102E5
:1003100004081020408001020408102040800102DF
:10032000040810204080CA0E11241FBECFE5D4E07F
:10033000DEBFCDBF22E0A0E9B0E001C01D92AE3E1D
:10034000B207E1F710E0A0E6B0E0EEEAFDE302C09C
:1003500005900D92A039B107D9F711E0C4E9D1E0B9
:1003600004C02197FE010E94DD1CC339D107C9F7E3
:100370000E94120F0C94D51E0C94000090E0FC011A
:10038000EA5FFC4F24918A519D4FFC0184918823A0
:1003900099F090E0880F991FFC01E452FD4FA59160
:1003A000B491FC01EE52FD4F859194918FB7F89472
:1003B000EC91E22BEC938FBF0895982F80ED890F7D
:1003C0008A3070F08FEB890F863018F489EC890F32
:1003D00008958FE9890F863010F489EAF8CF80E01C
:1003E00008950F931F93CF93DF938C01EB01A42FFC
:1003F000B0E0A159BD4F80E090E0483720F5811171
:1004000021C05D91292F30E06C817D81261737074F
:1004100020F4E881F981309791F41092AF01EFEA6E
:10042000F1E04F5F20815213E7CF9F5FA89581E0F5
:100430002C813D819217130601F380E0DECFE20F9D
:10044000F31FEFCF81E0F8014083DF91CF911F913F
:100450000F9108958A3010F4805D0895803110F472
:10046000895C089580E30895CF93DF93EC01DB016D
:1004700080E090E0E42FF0E0E759FE4F2081222356
:1004800041F1811125C0692F70E01496ED91FC9126
:1004900015976E177F0728F4ED91FC91119730970F
:1004A000A1F41092AF01EFEAF1E04F5F3081231326
:1004B000E0CF9F5FA89581E014962D913C91159710
:1004C00092171306B9F280E0D5CFE60FF71FEDCFF4
:1004D00081E04883DF91CF910895982F20916801A2
:1004E00081E0213208F040C0809144018111FCCFAD
:1004F0008091670132E030934401909343019FEF74
:10050000909342011092410120934001A7E4B1E091
:10051000E0E2F1E090E029132EC010921F019091CB
:100520001F01880F892B80931F0180911E0181304C
:1005300031F510921E0180911F0183B906B603FCAC
:10054000FACF85EC86BF809144018230E1F380913F
:1005500042018F3FB1F0809142018032A1F0809141
:100560004201803391F084E01092460110926801BC
:100570001092450108953D9131939F5FCCCF85EE58
:10058000E1CF80E0F1CF82E0EFCF83E0EDCFFB0160
:1005900090E0DC01A759BE4F4C9140534A3010F017
:1005A00080E008952081318154E6459F200D311D62
:1005B000112431832083DC01A659BE4F4C9150EDAC
:1005C000540F5A3068F7AAE04A9F200D311D1124BC
:1005D000205E31403183208385599E4FDC018C9110
:1005E00090ED980F9A30E0F68053990B280F391F41
:1005F0003183208381E008952F923F924F925F9242
:100600006F927F928F929F92AF92BF92CF92DF9222
:10061000EF92FF920F931F93CF93DF936C017B01B7
:10062000FA012115310589F0C90153E0880F991F9E
:100630005A95E1F767E070E00E948B1CE61AF70A12
:10064000892B19F041E0E41AF108E901CC0FDD1F14
:10065000612C2115310569F0C90133E0880F991F1C
:100660003A95E1F767E070E00E948B1C27E0622E6C
:10067000681ACE0FDF1FC959DD4F712C10E000E062
:10068000812C912C540183940E151F0508F03DC058
:10069000A89588850E94DD01582E89850E94DD017C
:1006A000529490EF5922850D262D30E090E0A895C8
:1006B000F601E00FF11F14012501072C04C0220CE4
:1006C000331C441C551C0A94D2F76081AC01022EE5
:1006D00002C0559547950A94E2F740FF13C062297E
:1006E0006083739446E0471530F440814F77408330
:1006F0000F5F1F4F712C2F5F3F4F2830C1F622969E
:10070000612CC2CF20946221EBCF0C0D1D1DF8018E
:100710001082DF91CF911F910F91FF90EF90DF90AA
:10072000CF90BF90AF909F908F907F906F905F9091
:100730004F903F902F90089508950895AF92BF92E3
:10074000CF92DF92EF92FF920F931F93CF93DF939D
:100750006C017B018B01040F151FEB015E01AE18CC
:10076000BF08C017D10759F06991D601ED91FC91EE
:100770000190F081E02DC6010995892B79F7C5011B
:10078000DF91CF911F910F91FF90EF90DF90CF906D
:10079000BF90AF900895FC01918D828D981761F004
:1007A000A28DAE0FBF2FB11D5D968C91928D9F5F74
:1007B0009F73928F90E008958FEF9FEF0895FC0153
:1007C000918D828D981731F0828DE80FF11D858D06
:1007D00090E008958FEF9FEF0895FC01918D228D99
:1007E000892F90E0805C9F4F821B91098F7399271E
:1007F00008958EEB91E00E94ED0321E0892B09F42E
:1008000020E0822F089580E090E0892B29F00E945B
:10081000F90381110C9400000895FC01A48DA80F28
:10082000B92FB11DA35ABF4F2C91848D90E0019632
:100830008F739927848FA689B7892C93A089B18952
:100840008C9180648C93938D848D981306C002885C
:10085000F389E02D80818F7D80830895EF92FF9250
:100860000F931F93CF93DF93EC0181E0888F9B8DD3
:100870008C8D981316C0E889F989808185FF11C095
:10088000EE89FF896083E889F989808180648083AB
:1008900081E090E0DF91CF911F910F91FF90EF9059
:1008A0000895F62E0B8D10E00F5F1F4F0F73112769
:1008B000E02E8C8D8E110CC00FB607FCFACFE889A4
:1008C000F989808185FFF5CFCE010E940D04F1CF1B
:1008D000EB8DEC0FFD2FF11DE35AFF4FF0820B8FD4
:1008E000EA89FB8980818062D2CFCF93DF93EC01CC
:1008F000888D8823B9F0AA89BB89E889F9898C9108
:1009000085FD03C0808186FD0DC00FB607FCF7CFC3
:100910008C9185FFF2CF808185FFEDCFCE010E94C3
:100920000D04E9CFDF91CF910895843059F028F478
:10093000813099F0823089F00895853039F0873020
:1009400041F008958FB58F778FBD08958FB58F7D56
:10095000FBCF85B58F7D85BD089583B78F7D83BF20
:100960000895CF93DF93282F30E0F901E25AFF4F2B
:100970008491F901EA5FFC4FD491F901EA51FD4FEE
:10098000C491CC23A1F081110E949504EC2FF0E0DA
:10099000EE0FFF1FEC5AFF4FA591B491EC91ED23A0
:1009A00081E090E009F480E0DF91CF91089580E04C
:1009B00090E0FACF1F93CF93DF93282F30E0F90117
:1009C000E25AFF4F8491F901EA5FFC4FD491F9019B
:1009D000EA51FD4FC491CC23A9F0162F81110E943A
:1009E0009504EC2FF0E0EE0FFF1FEE52FD4FA591A6
:1009F000B4918FB7F894EC91111108C0D095DE2313
:100A0000DC938FBFDF91CF911F910895DE2BF8CF3C
:100A1000CF92DF92EF92FF920F931F939FB7F894BC
:100A2000C090FC00D090FD00E090FE00F090FF0030
:100A300082B708B600FE07C08F3F29F02FEFC21A19
:100A4000D20AE20AF20A9FBFFE2CED2CDC2CCC2449
:100A5000C80ED11CE11CF11CA9E0B0E0A701960171
:100A60000E942E1C9701860142E036952795179526
:100A700007954A95D1F7601B710B820B930B53E0DE
:100A8000F694E794D794C7945A95D1F76C197D09D9
:100A90008E099F091F910F91FF90EF90DF90CF90EB
:100AA00008958F929F92AF92BF92CF92DF92EF9272
:100AB000FF924B015C010E9408056B017C010E94C2
:100AC00008056C197D098E099F09683E73408105F0
:100AD0009105A8F321E0821A9108A108B10888EED7
:100AE000C80E83E0D81EE11CF11C81149104A104FE
:100AF000B10429F7FF90EF90DF90CF90BF90AF90B7
:100B00009F908F900895A89568EE73E080E090E044
:100B10000E945105A89568EE73E080E090E00E9485
:100B20005105A89568EE73E080E090E00E945105C1
:100B3000A89568EE73E080E090E00C9451052FB723
:100B4000F8946091F8007091F9008091FA0090910A
:100B5000FB002FBF089585ED86BF06B604FCFDCFD0
:100B6000109244010895613298F420914401243098
:100B700089F46093D400282FA4EBB0E0FC018E2F01
:100B8000821B861710F080E0089581918D93F7CF36
:100B900081E0089582E008950895E0910101809137
:100BA0000001E81730F4F0E0EC56FF4F808190E050
:100BB00008958FEF9FEF08959091010180910001BA
:100BC0002FEF3FEF981748F4E92FF0E0EC56FF4F76
:100BD000208130E09F5F90930101C90108958091C9
:100BE000000190910101891B990B0895CF92DF922A
:100BF000EF92FF920F931F93CF93DF937C01CB0172
:100C00008A0120914501222389F0EB016B01C40E7A
:100C1000D51ECC15DD0569F06991D701ED91FC91E8
:100C20000190F081E02DC7010995F3CF642F0E9458
:100C3000B305C801DF91CF911F910F91FF90EF9005
:100C4000DF90CF900895CF93DF931F92CDB7DEB79B
:100C50006983209145012223F9F020916801203217
:100C600058F021E030E0FC013383228390E080E003
:100C70000F90DF91CF91089580914601E82FF0E029
:100C8000E95BFE4F998190838F5F8093460180934B
:100C9000680181E090E0ECCF61E0CE0101960E9416
:100CA000B305F7CFEF92FF920F931F93CF93DF938C
:100CB000EB018C01060F171FEE24E39480E5F82E5C
:100CC000E0924501F092670110924601109268018E
:100CD0006D2F8BE592E00E9423066C2F8BE592E04E
:100CE0000E94230660E08BE592E00E9423066AE002
:100CF00070E080E090E00E945105A89581E00E949C
:100D00006D0221960C171D07D9F6DF91CF911F9127
:100D10000F91FF90EF90089581E00E94B10461E08F
:100D2000892B09F060E081E00E94DA0481E00E94F2
:100D3000B104682F8BE00E94DA04809192009091B8
:100D400093009DBD8CBD809192009091930088B7D7
:100D5000846088BF89B7846089BF089560E081E0BE
:100D60000E94DA0460E08BE00C94DA04A091B601F2
:100D7000B091B70120E231EA47E050E00E94D51C73
:100D80001FBC1EBC2BE830E040E050E00E94B31CCA
:100D9000319521953109309393002093920085E09D
:100DA0008EBD89B78B7F89BF1DBC1CBC8EEA96E0C7
:100DB000909391008093900008950F931F93CF9389
:100DC000DF93C0EBD1E08C01005B1140C8018C0FB8
:100DD0009D1F0E94191C899381E0CE3BD807B1F773
:100DE00080EB91E0DF91CF911F910F910895CF9308
:100DF000DF939C01ADE1B1E0EB01E881E901CE0FA9
:100E0000D11D888180538A3028F42197988190538E
:100E10009A3048F0C90163EA71E00E94D41B80E077
:100E2000DF91CF9108959295907F980F9C93E25017
:100E3000EB01E8831197D1E0A831BD07E9F6E20F95
:100E4000F32FF11D808190ED980F933118F78054A6
:100E50008093180181E0E4CFFF920F931F93CF930B
:100E6000DF9300EB11E0D0E0C0E0F801F1908F01DA
:100E7000CE010E94191CF81621F06F2DCE010E94A0
:100E8000211C2196CE30D10581F780EB91E0DF91D6
:100E9000CF911F910F91FF900895CF93C82F81E0BC
:100EA0008093450180E5809367011092460110927E
:100EB0006801692F8BE592E00E9423066C2F8BE579
:100EC00092E00E94230681E00E946D02A895809125
:100ED00044018111FCCF81E0809344018093430160
:100EE0009FEF909342011092410110924001809334
:100EF0001F0180911F01806A80931F0180911E0154
:100F0000813039F510921E0180911F0183B906B618
:100F100003FCFACF85EC86BF809144018130E1F378
:100F20008091410191E0811102C090914101A0E2C4
:100F3000B1E0E4E9F0E080E089130DC01092010116
:100F400080930001A8958BE592E00E94DC05CF918B
:100F5000089585EEE0CF2D9121938F5FEDCF0F9314
:100F60001F93CF93DF93EC0188819981009759F00B
:100F70002A813B812617370730F081E0DF91CF913E
:100F80001F910F9108958B016F5F7F4F0E94081E84
:100F9000009759F0998388831B830A832C813D81B4
:100FA000232B59F7FC011082E8CF80E0E7CFEF92C6
:100FB000FF920F931F93CF93DF93EC017B01CB0143
:100FC0000E94DB1B0097A9F00C811D81080F191FDF
:100FD000B801CE010E94AF07882361F028813981D2
:100FE0008C819D81B701820F931F0E94D41B1D83AA
:100FF0000C8381E0DF91CF911F910F91FF90EF90D3
:101000000895EF92FF920F931F93CF93DF93611593
:10101000710541F480E0DF91CF911F910F91FF9016
:10102000EF90089541155105B1F07B01EC010C8161
:101030001D81040F151FB8010E94AF07882351F3CB
:10104000288139818C819D81B701820F931F0E9475
:10105000CE1E1D830C8381E0DECFCF93DF93EC01A6
:1010600088819981009711F00E947F1D1982188252
:101070001D821C821B821A82DF91CF910895CF932B
:10108000DF93EC010E94D707811103C0CE010E94BB
:101090002D08CE01DF91CF910895EF92FF920F932B
:1010A0001F93CF93DF9300D000D0CDB7DEB77C0184
:1010B000862F4AE08E010F5F1F4FB80190E00E941B
:1010C000E41BF80101900020E9F73197AF01401BC4
:1010D000510BB801C7010E940108811103C0C7016B
:1010E0000E942D08C7010F900F900F900F90DF9175
:1010F000CF911F910F91FF90EF900895EF92FF9283
:101100000F931F93CF93DF93EC018B01CB010E94D0
:10111000DB1B7C01BC01CE010E94AF0781110BC01B
:10112000CE010E942D08CE01DF91CF911F910F912A
:10113000FF90EF900895FD82EC82B801888199813B
:101140000E94D41BF0CFFC01118210821382128204
:10115000158214820C947E08EF92FF920F931F93D6
:10116000CF93DF93EC017B018A01BA010E94AF07A4
:1011700081110BC0CE010E942D08CE01DF91CF91CD
:101180001F910F91FF90EF9008951D830C83B7017D
:10119000888199810E94CE1EF0CFFB010190002032
:1011A000E9F73197AF01461B570B0C94AC08CF936E
:1011B000DF93EC01FB018617970749F0608171818D
:1011C0006115710541F0448155810E94AC08CE0142
:1011D000DF91CF9108950E942D08F9CFFC01118273
:1011E000108213821282158214820C94D708FC019B
:1011F0001182108213821282158214826115710588
:1012000051F0FB0101900020E9F73197AF01461B37
:10121000570B0C94AC080895FC01808191810C94CB
:101220007F1DEF92FF920F931F93CF93DF93CDB764
:10123000DEB72D970FB6F894DEBF0FBECDBF8091FD
:101240006A020E94BE0161E080916A020E94DA0493
:10125000A89568EE73E080E090E00E945105A895A3
:1012600068EE73E080E090E00E94510560E08091BC
:101270006A020E94DA04A89568EE73E080E090E0CC
:101280000E945105A89568EE73E080E090E00E940E
:10129000510500916C0210916D02D801ED91FC9105
:1012A0000284F385E02DC8010995D8015296ED918D
:1012B000FC91539780818F7E80835296ED91FC91B3
:1012C00053978081877F80835296ED91FC9153974D
:1012D00080818F7780835296ED91FC915397808126
:1012E0008F7D80835A968C915A9759968C9368EC8F
:1012F00070E080E090E00E945105A895E0916C02BA
:10130000F0916D02A089B18982E08C93A485B585A6
:101310001C92A685B7858FE58C93108EA489B5891C
:1013200086E88C93A289B3898C9180618C93A28981
:10133000B3898C9188608C93A289B3898C918068E1
:101340008C930288F389E02D80818F7D8083F12C3E
:1013500010E06DEC72E0CE0101960E94A30820E13E
:1013600037E240E050E061E0CE0101960E94BE0A03
:10137000082FCE0101960E940C090111E1C068EC12
:1013800070E080E090E00E945105A8951F5F1A3040
:1013900000F3FF2009F4E4C066EC72E0CE01019690
:1013A0000E94A30820E137E240E050E061E0CE0176
:1013B00001960E94BE0ACE0101960E940C096FEBB5
:1013C00072E0CE0101960E94A30820E137E240E0DE
:1013D00050E061E0CE0101960E94BE0ACE01019666
:1013E0000E940C0963EB72E0CE0101960E94A308F3
:1013F00020E137E240E050E061E0CE0101960E943A
:10140000BE0ACE0101960E940C0967EA72E0CE0185
:1014100001960E94A30820E137E240E050E061E03D
:10142000CE0101960E94BE0ACE0101960E940C09CF
:101430000E94830567E972E0CE0101960E94A3082D
:1014400020E137E240E050E061E0CE0101960E94E9
:10145000BE0ACE0101960E940C096EE772E0CE0131
:1014600001960E94A30820E137E240E050E061E0ED
:10147000CE0101960E94BE0ACE0101960E940C097F
:101480000E9483058AE0E82E00916802011165C080
:101490001D8667E772E0CE0107960E94A3086CE6FE
:1014A00072E0CE0101960E94A30820E137E240E0FD
:1014B00050E061E0CE0101960E94BE0ACE01019685
:1014C0000E940C0940E0BE01695F7F4FCE010D967E
:1014D0000E94F101882331F19D85E92FF0E0E15967
:1014E000FD4F10E020E030E0983710F4283058F13C
:1014F0009D873323B9F0E12FF0E0E959FD4F808556
:101500000E94DD01082F1F5FE12FF0E0E959FD4F38
:1015100080858C3231F00E9D002D11240E94DD015A
:10152000080FA895CE0107960E940C090093680247
:1015300064E670E080E090E00E945105A895A4CF99
:10154000F02E1AE023CF41919F5F4C3269F62F5F56
:10155000283051F6382F192FC7CF81E08093E80249
:101560008F2D2D960FB6F894DEBF0FBECDBFDF9145
:10157000CF911F910F91FF90EF9008958F929F92BE
:10158000AF92BF92CF92DF92EF92FF920F931F9391
:10159000CF93DF93EC01162F69017A010E949F051A
:1015A000C60ED71EE81EF91E0E949F054B015C0166
:1015B00028EC820E911CA11CB11C00E00E949F052A
:1015C000681579058A059B0520F580916C0290913C
:1015D0006D02DC01ED91FC910480F581E02D09950F
:1015E000181619069CF480916C0290916D02DC0132
:1015F000ED91FC910680F781E02D0995A8950E9458
:101600009F054B015C01A89501E0D8CF0023B1F202
:10161000F6CF0111C9CF80916C0290916D024C817F
:101620005D8168817981DC01ED91FC910280F3811B
:10163000E02D0995D0E0C0E02EC080916C02909121
:101640006D02DC01ED91FC910480F581E02D09959E
:101650001816190684F580916C0290916D02DC01D8
:10166000ED91FC910680F781E02D0995E02FF0E0E7
:10167000E959FD4F80870F5FE02FF0E0E959FD4FFA
:101680001086D1E0112339F0C130E9F48A3009F035
:1016900059C0D12FC2E00E949F056C157D058E05B3
:1016A0009F0508F05EC0073740F20E949F056B015E
:1016B0007C01D0E0F0CF62E370E080E090E00E9437
:1016C0005105A895F6CFC23029F48F34D9F5D12F22
:1016D000C3E0E1CFC33029F48B34A1F5D12FC4E0AE
:1016E000DACFC43029F48D3091F5D12FC5E0D3CFB6
:1016F000C53059F48A3031F510926902D12F0E9419
:101700009F056B017C01CAE0C6CFC63029F4823543
:10171000C9F4D12FC7E0BFCFC73029F4823591F487
:10172000D12FC8E0B8CFC83029F48F3459F4D12F65
:10173000C9E0B1CFC93021F4823521F4D0E0DFCF48
:10174000C1110BC0D12FC1E08D3009F4A4CFD12F2E
:10175000853409F070CFC6E09ECFD12FCA3079F220
:101760009ACFA895D11105C0809169028F5F8093AF
:101770006902809169028A3081F41092690261E005
:1017800080916B020E94DA040E94830560E08091E0
:101790006B020E94DA040E9411098D2FDF91CF9114
:1017A0001F910F91FF90EF90DF90CF90BF90AF907F
:1017B0009F908F9008958F929F92AF92BF92CF92F9
:1017C000DF92EF92FF920F931F93CF93DF93CDB7EA
:1017D000DEB764970FB6F894DEBF0FBECDBF68E8E2
:1017E00070E0CE010D960E94F70810E000E096E050
:1017F000892E912C85E0F82ECF2C0F2C000CDD08C3
:10180000C601800F911F0E944D07F601E85EFE4F52
:101810009081891394C0EE24E394F1100AC0C801AA
:101820000696B4010E948B1C5B01EE24E39409EA46
:1018300012E0FA94F7FEE0CF0F5F1F4F083A82E004
:101840001807C0F2EE2009F47EC0C50164E670E01E
:101850000E948B1C262F6AE070E00E948B1C062FD2
:1018600010E3180F18861F821A8619861C861B869D
:10187000205D29831A82BE016F5F7F4FCE010796DC
:101880000E94CD08BE01695F7F4FCE0101960E9484
:10189000EE08005D0B8B1C8A41E050E0BE016D5EDE
:1018A0007F4FCE0101960E940108811104C0CE0134
:1018B00001960E942D081B8B1C8A41E050E0BE015E
:1018C0006D5E7F4FCE0101960E940108811104C018
:1018D000CE0101960E942D08BE016F5F7F4FCE01A1
:1018E0000D960E94D708CE0101960E940C09CE01E8
:1018F00007960E940C096CE472E0CE010D960E94DE
:10190000D7076D857E8589E691E00E94CE1ECE01C7
:101910000D960E940C098E2D64960FB6F894DEBFCA
:101920000FBECDBFDF91CF911F910F91FF90EF9030
:10193000DF90CF90BF90AF909F908F900895FF243D
:10194000FA94E12C76CF69E372E089E691E00E9497
:10195000D41BDDCF1F920F920FB60F9211242F933D
:101960003F934F935F936F937F938F939F93AF9327
:10197000BF93EF93FF938EEB91E00E940D04FF91D4
:10198000EF91BF91AF919F918F917F916F915F91F7
:101990004F913F912F910F900FBE0F901F90189570
:1019A0001F920F920FB60F9211242F938F939F9334
:1019B000EF93FF93E091CE01F091CF018081E09110
:1019C000D401F091D50182FD1BC090818091D70197
:1019D0008F5F8F732091D801821741F0E091D7017A
:1019E000F0E0E254FE4F958F8093D701FF91EF9185
:1019F0009F918F912F910F900FBE0F901F90189570
:101A00008081F4CF1F920F920FB60F9211242F9363
:101A10003F938F939F93AF93BF938091F8009091E2
:101A2000F900A091FA00B091FB003091F7002AE292
:101A3000230F2D3758F50296A11DB11D2093F700F5
:101A40008093F8009093F900A093FA00B093FB0004
:101A50008091FC009091FD00A091FE00B091FF00EC
:101A60000196A11DB11D8093FC009093FD00A093F1
:101A7000FE00B093FF00BF91AF919F918F913F9176
:101A80002F910F900FBE0F901F9018952DEA230FE6
:101A90000396A11DB11DD2CF1F920F920FB60F92C8
:101AA00011242F933F934F935F936F937F938F9363
:101AB0009F93AF93BF93EF93FF9381B1887F80365D
:101AC00009F44AC0F0F5883209F4A3C018F5803152
:101AD00009F499C0B8F4882309F4F1C0883009F4F6
:101AE00092C0FF91EF91BF91AF919F918F917F91A4
:101AF0006F915F914F913F912F910F900FBE0F907B
:101B00001F901895883109F484C0803251F7809372
:101B1000420114C0803409F498C040F48033B9F312
:101B20008833F9F68093420185ECAAC0803509F428
:101B300081C0883509F491C0883499F60E94AB05BC
:101B4000D0CF883909F487C030F5883729F050F4B0
:101B5000883611F0803729F683E080934401109293
:101B6000F60054C0883809F476C0803919F08038FE
:101B700009F0B7CF8091F600803208F06CC0E09198
:101B8000F60081E08E0F8093F60083B1F0E0EA5218
:101B9000FF4F80833BC0803B39F0E0F4803A09F48A
:101BA00073C0883A09F09DCF84E08093440110927D
:101BB000D5001092D400E0910401F091050109953F
:101BC0008091D40081110FC081E08093D4001092E5
:101BD000B40009C0803C09F4A7CF883C09F4A4CF25
:101BE000883B09F07ECFE091D50081E08E0F809395
:101BF000D500F0E0EC54FF4F808183B99091D5007F
:101C00008091D40026C080911F0183B985EC86BFE6
:101C100068CF9091410180914001981748F5E0917B
:101C2000410181E08E0F80934101F0E0E05EFE4FC4
:101C30008081EBCFE091410181E08E0F80934101E3
:101C400083B1F0E0E05EFE4F80839091410180918E
:101C500040019817D8F285E8DACFE091410181E0A0
:101C60008E0F8093410183B1F0E0E05EFE4F8083F0
:101C700080914301811162CF81E080931E0184EA4B
:101C800086BF109244012DCF85EC86BF109244018F
:101C90008091F600803230F4E091F600F0E0EA52F4
:101CA000FF4F10826091F60070E0E0910201F09128
:101CB000030186ED90E009951092F60012CF109284
:101CC00042013CCF1F920F920FB60F9211242F9317
:101CD0003F934F935F936F937F938F939F93AF93B4
:101CE000BF93EF93FF9389B78B7F89BF8091920059
:101CF000909193009DBD8CBDE0919000F09191007A
:101D00000995FF91EF91BF91AF919F918F917F9135
:101D10006F915F914F913F912F910F900FBE0F9058
:101D20001F9018956AE572E089E691E00E94D41B45
:101D300029E631E0F90101900020E9F79F012A56D8
:101D400031408091B6019091B7013327F901E759ED
:101D5000FE4FAC0197FF02C04F5F5F4F559547950F
:101D6000405D4083F901E659FE4F4EE24083F901A0
:101D7000E559FE4F62E070E00E949F1C982F990F7A
:101D8000990F890F805D808324593E4FF90110829D
:101D900081E00895EEEBF1E01382128288EE93E089
:101DA000A0E0B0E084839583A683B7832AE630E081
:101DB0003183208320E430E03587248749E250E0F6
:101DC000578746874BE250E0518B408B4AE250E008
:101DD000538B428B358B248B2CE230E0378B268B58
:101DE000118E128E138E148EEBE5F2E013821282A6
:101DF00084839583A683B7838AE790E09183808369
:101E0000E7E6F2E010821182178281E08093E70218
:101E10008093E80284E08093E90286E0838387E090
:101E200084830895CF93DF93CDB7DEB7E1970FB6E4
:101E3000F894DEBF0FBECDBF789483B7826083BFB6
:101E400083B7816083BF83B7806483BF83B78860B3
:101E500083BF89B7816089BF1EBC8EB582608EBD8D
:101E60008FB581608FBD85B5846085BD85B5806483
:101E700085BD329A3198309A379A1AB88BE00E9411
:101E8000BE018CE00E94BE018DE00E94BE0181E097
:101E90000E94BE0180E00E94BE018EE00E94BE0151
:101EA00086E00E94BE0187E00E94BE0160E08BE0F8
:101EB0000E94DA0460E08CE00E94DA0460E08DE0C9
:101EC0000E94DA0460E081E00E94DA0460E080E0D1
:101ED0000E94DA0461E08EE00E94DA0460E086E0AD
:101EE0000E94DA0460E087E00E94DA04A89581B5D8
:101EF0008F6081BD0EEB11E010926E0210936D02A7
:101F000000936C020E941109811108C062E370E025
:101F100080E090E00E945105A895EECF90E080E02F
:101F20000E94DD06A8950E94B60661E08CE00E9442
:101F3000DA0480EA82B98CE993E0909305018093FA
:101F400004018DE993E090930301809302011092C4
:101F50000101109200011092460110926801109246
:101F6000440181E08093430110921E0161E081E110
:101F70000E94DA0461E080E10E94DA04089809987E
:101F80008CE180B985E486BF0E949F0560931401AF
:101F90007093150180931601909317019E012F5F96
:101FA0003F4F19010E949F050091140110911501E6
:101FB0002091160130911701601B710B820B930B5E
:101FC000693B7B408105910510F40C94A31B0E9492
:101FD0009F056093140170931501809316019093EF
:101FE0001701A895198E68E870E0CE0143960E940B
:101FF000A3086EE770E0C1010E94A30820E137E268
:1020000040E050E061E0C1010E94BE0AC1010E94AF
:102010000C091092070140E0BE016D5E7F4FCE01BA
:1020200049960E94F101182F81114EC010E0CE0197
:1020300043960E940C09112301F16FE870E0C10181
:102040000E94A30820E137E240E050E061E0C101D6
:102050000E94BE0AC1010E940C09A89519828091B4
:10206000BC019091BD01A4E095958795AA95E1F7F3
:10207000019709F0B8C00E948C06A895198E64EAF1
:1020800070E0CE0143960E94A30869E970E0C101A7
:102090000E94A30820E137E240E050E061E0C10186
:1020A0000E94BE0AC1010E940C0940E0BE016D5EA3
:1020B0007F4FCE0149960E94F10130E010E020E010
:1020C0008111C9C010E0FDC0898DE82FF0E0E15911
:1020D000FD4F90E0883758F421E0280F91110BC094
:1020E000819191E08C3209F090E0822FF3CF898FBB
:1020F000992309F49BCFE82FF0E0E159FD4F90E0E0
:102100008837A8F521E0280F992351F1898FA895E8
:10211000898DE82FF0E0DF01A959BD4F18969C91F9
:10212000943309F083CFE159FD4F90E020E08837E8
:1021300058F5992311F1898FA895898DE82FF0E042
:10214000E159FD4F90E0883720F531E0380F9111CB
:1021500024C0819191E0823209F090E0832FF3CF87
:10216000819191E08C3209F090E0822FC9CF898F64
:10217000A895992309F45ACFCBCF31918F5F323292
:10218000B1F6912F282FD3CF898F992309F44ECF01
:10219000D3CF898F992309F449CF8150898F60E08B
:1021A00030E0862F90E0498D50E0421B530B84179E
:1021B000950784F46C3058F4FC01E95FFE4F8959AF
:1021C0009D4FDC01A20FB31F18968C9180836F5F27
:1021D000A895E7CF895F9E4FDC011C9228CF895FCD
:1021E0009E4FDC011C92E7E0F1E001900020E9F74E
:1021F000CF01885091408C309105D0F019824981EF
:10220000242F30E0A7E0B1E00D900020E9F7CD01E8
:10221000885091402817390710F7F901E85FFE4F01
:102220008081295F3E4FF90180834F5F4983E7CF6B
:10223000815089838A3008F420CFB10187E091E092
:102240000E94F706882309F418CF0E94DB0B88232D
:1022500009F413CF10CF998D983798F4273088F46C
:10226000A895998DE92FF0E0E959FD4F40859F5FD2
:102270004C3229F42F5F273011F4382F192F998F02
:10228000EACF332309F41ECFE12FF0E0E959FD4FE7
:1022900080850E94DD011F5FE12FF0E0E959FD4FCD
:1022A00090859C3241F01AE0819F102D1124892FD6
:1022B0000E94DD01810F8093670211E0882309F4F9
:1022C00001CFCE0143960E940C09112311F40C9406
:1022D0007D1B109269011092070181E08CA71BA65B
:1022E00068ED70E0CE0185960E94A30861ED70E074
:1022F000CE014F960E94A308512C11E090916802E4
:102300008CA5981708F41CA7A8950CA568EC70E09C
:10231000C1010E94A308B101CE0143960E94EE08BC
:10232000602FCE0143960E944D0865EC70E00E943C
:102330003F08BC01CE0149960E94EE0820E137E239
:1023400040E050E061E0CE0149960E94BE0ACE0115
:1023500049960E940C09CE0143960E940C09C101C6
:102360000E940C0940E0BE016B5D7F4FCE018B9651
:102370000E94F1018111A3C01BA640E0BE01615E75
:102380007F4FCE018B960E94F10181115CA49CA528
:102390009F5F9CA7882309F4B1CFA8958BA58CA734
:1023A00063EC70E0CE0185960E947E084CA5BE01CC
:1023B0006B5D7F4FCE018C960E94F1014CA5BE0152
:1023C0006B5D7F4FCE018C960E94F1010CA510E051
:1023D00009591D4FF80183858D3009F472C080E0E2
:1023E000D8011A969C911A979D3069F418968C9191
:1023F0000E94DD01F82EF80181850E94DD01FAE0DE
:10240000FF9E800D11248F3308F45DC06AEB70E0ED
:10241000C1010E94A308B101CE0143960E94EE08BB
:10242000652DCE0143960E944D0867EB70E00E9437
:102430003F08BC01CE0149960E94EE0820E137E238
:1024400040E050E061E0CE0149960E94BE0ACE0114
:1024500049960E940C09CE0143960E940C09C101C5
:102460000E940C09CE014F960E940C09CE01859660
:102470000E940C0967E172E0CE014F960E94A3080A
:102480001BA640E0BE01615E7F4FCE018B960E948D
:102490003402882309F4F3C1809106018111EFC150
:1024A00069E870E080EB91E00E94CE1E0E942C074C
:1024B00069EA71E089E691E00E94D41BF8C380E0EC
:1024C00066CF8FE38DCF64EB70E0CE0185960E94DE
:1024D0007E084CA5BE016B5D7F4FCE018C960E949D
:1024E000F101ECA40E2D10E009591D4FD8011896EA
:1024F0008C910E94DD01F82EF80181850E94DD019A
:10250000F29420EFF2228158F80EFF0C14E01E0D19
:102510001F0D812F90E09C0129593D4F7901D90170
:1025200018968C910E94DD01782EF70181850E941A
:10253000DD01729430EF7322780E42E0E42EE10E5A
:10254000F12C970129593D4F7901D90118968C91A9
:102550000E94DD01D82EF70181850E94DD01D29411
:1025600050EFD522D80E84E0810F90E09C012959CC
:102570003D4F7901D90118968C910E94DD01982E6A
:10258000F70181850E94DD01929460EF9622980EFA
:1025900076E0F72EF10E882483948D0CE89480F871
:1025A0008F0C02E0080D10E009591D4FD801189654
:1025B0008C910E94DD01E82EF80181850E94DD01E9
:1025C0001E2D1295107F180F82E1880D90E09C015E
:1025D00029593D4F5901D90118968C910E94DD016E
:1025E000E82EF50181850E94DD01E294E0EFEE2204
:1025F000E80EF4E1CF2EC80C76FE8CC08C2D90E056
:102600009C0129593D4F5901D90118968C910E947E
:10261000DD01082FF50181850E94DD010295007F13
:10262000080F86E1880D002309F475C090E09C0135
:1026300029593D4F5901D90118968C910E94DD010D
:10264000782EF50181850E94DD01729490EF792248
:10265000870D9EE7900F990FF8E18F0E980D81116D
:102660005CC094509CA7812F807E803C09F457C0A9
:10267000812F807F803E09F454C0812F90E0959592
:10268000879595958795182F1370892D807F803DAC
:1026900011F00C94A51B2D2D26958D2D6EE00E941A
:1026A0007F1CD22ED80E81E001110C94A81B4F2D57
:1026B00050E06D2D70E030E020E087E091E00E9476
:1026C000FC02111136C0202F30E04C2D50E06E2D51
:1026D00070E089E691E00E94FC026BEA70E0C101C3
:1026E0000E94A308B101CE0143960E94EE08652D19
:1026F000CE0143960E944D088C0142E050E066E80E
:1027000070E00E940108811103C0C8010E942D08D9
:10271000B80190CE00E080E09CCF9650A3CF10E0AF
:10272000B4CF12E0B2CFE62FF0E0E95FFE4F1082A7
:10273000C8CF113071F5F12C10E0E01AF10A000F4A
:10274000111F0C0D111D09591D4FB9E6CB2EB1E01B
:10275000DB2E0E5F1F4FC601895691408E159F05D7
:1027600098F4A895D80116968C910E94DD01B82E98
:10277000F80187810E94DD01B294F0EFBF22B80E0C
:10278000D601BD926D01E5CFF701E759FE4F1082EA
:10279000A4CF123009F0A1CF8091E702813009F077
:1027A0009CCF202F30E0A901440F551FC40ED52E19
:1027B000D11CF601E959FD4F5F010E2D10E0021BFF
:1027C000130B000F111F712C612CE1ED4E2E9301A4
:1027D00027593E4F4901C5018C199D0987569240E2
:1027E0008017910708F049C0D50118968C910E9476
:1027F000DD01E82EF50181850E94DD01E29440EFC4
:10280000E422E80ED5011A968C910E94DD01F82E83
:10281000F50183850E94DD01F29450EFF5228F0DC2
:1028200093012F5F3F4FE11007C0D4018C93F4E078
:10283000AF0EB11C3901CBCFF901E759FE4F93011F
:102840002E5F3F4F813031F440EDD4014C9351E87D
:102850005083EDCF813529F4D4014C92B1E9B08396
:10286000E6CF803430F440EDD4014C93805880831F
:10287000DECFD4014C92805CFACFF90188CF9091E1
:1028800069018091B001981316C090916A018091FE
:10289000B101981310C090916B018091B20198130F
:1028A0000AC090916C018091B301981304C080918B
:1028B0006D01833219F063EA71E0FCCD15E01BA7CE
:1028C00061E172E0CE014F960E947E084BA5BE01E9
:1028D000615E7F4FCE018B960E943402882359F0AF
:1028E00084E690E00E94DD0670E060E080E090E128
:1028F0000E945206DDCD1BA76DE072E0CE014F961F
:102900000E947E084BA5BE01615E7F4FCE018B9673
:102910000E943402882309F472C11C8A1B8A198E12
:1029200061EA71E0C1010E94A3088BA5E82FF0E0E5
:10293000E459FE4F90819F3319F0933209F0A2C001
:10294000BE016D5E7F4F0E94C70281110AC063EA1B
:1029500071E089E691E00E94D41BC1010E940C093C
:10296000A6C18B899C8926E0289F7001299FF00CC5
:102970001124F6E0EF1AF108EBA5F0E0E459FE4F60
:1029800020812F3309F048C0893A22E09207F8F6F7
:1029900064E670E00E948B1C605D609369016AE0F0
:1029A00070E00E948B1C605D60936A01805D809383
:1029B0006B018AE380936C0180E280936D01D12CDE
:1029C0000D2D10E0C8018E0D9F1D0E944D07DD20CA
:1029D000B9F0000F111FF801E359FE4F982F92959F
:1029E0009F70905D908302591E4F8F70805DD8015B
:1029F0008C93D394B5E0BD1518F710927901ADCF43
:102A0000811105C010926E0126E0D22EF2CF8F7098
:102A1000805D80936E01EDCF893A924008F097CFA8
:102A2000B70186E090E00E94520660E971E089E615
:102A300091E00E94D41BA9E6B1E00D900020E9F7D7
:102A40009D012A5631408B899C893327F901E7592A
:102A5000FE4F64E670E00E948B1C605D6083F901AC
:102A6000E659FE4F6AE070E00E948B1C605D608357
:102A7000F901E559FE4F805D808324593E4FF901ED
:102A800010826BCF898F4BE0480FB101CE01499680
:102A90000E943402882381F0898D8250898FBE0183
:102AA000675E7F4F89E691E00E94F706882309F46C
:102AB0004ECF0E94DB0B51CF6FE971E0C1010E9444
:102AC0007E084BA5498F455FB101CE0149960E9412
:102AD0003402882309F43BCF898D8BA79EEF980F92
:102AE000998FE82FF0E0E459FE4F9081933209F07E
:102AF0002ECFBE016D5E7F4F0E94C702882309F46E
:102B000026CFBE01675E7F4F89E691E00E94F706FF
:102B1000882309F41CCF8B899C8926E0289F7001AB
:102B2000299FF00C1124870106501109893A92401F
:102B300008F00DCF0E94DB0B81110FCF88E1C82E6A
:102B400081E0D82EAA24A39490E5B92EA092450145
:102B5000B09267011092460110926801612F8BE5D7
:102B600092E00E942306602F8BE592E00E942306EC
:102B7000D6016D916D018BE592E00E9423066AE01B
:102B800070E080E090E00E94510581E00E946D02BB
:102B90000F5F1F4F0E151F05C9F66EE771E089E63E
:102BA00091E00E94D41BE9E6F1E001900020E9F7F2
:102BB0009F012A5631403327F901E759FE4F80E241
:102BC00080838B899C89F901E659FE4F64E670E0A9
:102BD0000E948B1C605D6083F901E559FE4F6AE03D
:102BE00070E00E948B1C605D6083F901E459FE4F28
:102BF000805D808323593E4FD9011C92AECE69E09F
:102C000072E0CE014F960E947E081BA745E0BE01F0
:102C1000615E7F4FCE018B960E943402882309F4B7
:102C200097C08BA583508BA730E020E08BA5820F47
:102C3000932F911DFC01E759FE4F8F589E4F408105
:102C4000FC018081481337CE00002F5F3F4F2830B2
:102C5000310561F7EBA5ED5FEBA7F0E0E759FE4F1B
:102C600000EB11E084EB91E0D80121912D938A17BC
:102C70009B07D9F70E942C076FE671E089E691E087
:102C80000E94D41BE9E6F1E001900020E9F7EA5642
:102C9000F140FF27E759FE4F80E0D8019D918D015B
:102CA0009193843009F410828F5F8530B1F7CE01A3
:102CB0004F960E940C0980916901853409F41DC565
:102CC00080910701853409F418C568E870E0CE01E9
:102CD0004F960E94F7081DA2E9E6F1E0019000205E
:102CE000E9F79F012A5631408091E802813009F4CA
:102CF000A7C120F0F12CE12C823009F47901A7E082
:102D0000B1E00D900020E9F7CD0188509140B82E38
:102D1000209107012B3219F4BB24BA94B80E20E09D
:102D200010E0822F90E0E9E6F1E001900020E9F761
:102D3000AF014A5651408417950708F0A3C187593F
:102D40009E4FDC018C9187FD18E0A8952F5FE9CF9D
:102D500065E072E0CE014F960E947E081BA745E019
:102D6000BE01615E7F4FCE018B960E9434028823A4
:102D7000A1F06BEE71E089E691E00E94D41B809196
:102D8000BC019091BD018F70992740969093BD0131
:102D90008093BC010E942C078ACF67EE71E0CE01C0
:102DA0004F960E947E081BA745E0BE01615E7F4FE3
:102DB000CE018B960E943402882369F068EC71E0A2
:102DC00089E691E00E94D41B8091BC019091BD01E5
:102DD0008F709927DBCF64EC71E0CE014F960E9493
:102DE0007E0885E08BA745E0BE01615E7F4FCE0186
:102DF0008B960E943402882389F18BA590E0FC0118
:102E0000E759FE4F20812F3319F40E94920E4FCFC5
:102E1000FC01E559FE4F3081333201F520532A3051
:102E2000E8F486599E4FFC01808180538A30B0F4CB
:102E300090E0FAE02F9F800D911D11249093B7012F
:102E40008093B60143972CF40E942C070E94B6068B
:102E5000DCCF90E080E00E94DD062DCD6FEB71E0CD
:102E6000CE014F960E947E0885E08BA745E0BE010B
:102E7000615E7F4FCE018B960E943402882309F455
:102E8000ADC068E870E0CE0149960E94F70865E69B
:102E900071E0CE0149960E947E081DA261E171E0B9
:102EA000CE0143960E94A30868E071E0C1010E9430
:102EB000A30820E137E240E050E061E0C1010E9458
:102EC000BE0A182FC1010E940C09111167C010E041
:102ED000CE0143960E940C091C8A1B8A1E8A1D8AF9
:102EE000188E1F8A34E6139FC00111246FE170E031
:102EF0000E949F1CCB014AE0B1010E94E41BB1017A
:102F0000CE0143960E94CD08BE016D5E7F4FC10188
:102F10000E94EE0862E671E0C1010E943F08DC01F8
:102F200014964D915C9115976D917C91CE014996C7
:102F30000E940108C1010E940C09CE0143960E9423
:102F40000C09A89581E00E94B10460E571E0892B2D
:102F500011F46CE371E0CE0149960E94D707A89561
:102F600080E00E94B1046BE271E0892B11F468E10A
:102F700071E0CE0149960E94D707A895698D7A8D98
:102F800089E691E00E94CE1EA89568E870E0CE0127
:102F900049960E94CD08CE014996E0CC40E0BE01A2
:102FA0006D5E7F4FCE0185960E94F101882309F462
:102FB0008ECFEDA1F0E0E959FD4F018580850E949B
:102FC000DD01182F0C3209F483CF802F0E94DD0120
:102FD0002AE0129F800D1124182F7ACF14E01BA72E
:102FE0006AEB71E0CE014F960E947E084BA5BE01B0
:102FF000615E7F4FCE018B960E943402882339F0A8
:1030000061E080E00E94DA0464EE70E053CA1BA71E
:1030100064EB71E0CE014F960E947E084BA5BE0185
:10302000615E7F4FCE018B960E943402882309F4A3
:1030300042CC60E080E00E94DA0465EF70E03ACABA
:10304000F12CE12C90E080E08217930708F057CE36
:10305000FC01E759FE4F4081FFEFEF1AFF0AA895E8
:1030600047FD02C00196F0CF403E10F40296ECCF2F
:10307000403F10F40396E8CF483F10F40496E4CFA5
:103080000596E2CF8091E9028111D9C01061B12F7C
:10309000BF70BFA7B111E0C0E1EAEE16F10418F06D
:1030A000B0EAEB2EF12C0E2D27E02E9DC0012F9DB6
:1030B000900D11249C01A3E035952795AA95E1F781
:1030C0006901FDE0CF0ED11C87709927892B09F08B
:1030D000D9C060E372E0CE0143960E94A308BE010E
:1030E0006D5E7F4FCE0149960E94EE084AE0B10125
:1030F000C6010E94EF1BF10101900020E9F7319712
:10310000AF0142195309B101CE0149960E9401084D
:10311000811104C0CE0149960E942D086DE272E033
:10312000CE0149960E943F08BC01C1010E94EE08F1
:1031300020E137E240E050E061E0C1010E94BE0AB8
:10314000C1010E940C09CE0149960E940C09CE01D2
:1031500043960E940C0969E272E0CE014F960E94EC
:103160007E0840E0BE01615E7F4FCE0185960E94E1
:10317000F101882309F4BDC270E3D72ED0926F020B
:10318000D092700280E00E942A0280937102E1E3F3
:10319000CE2EC0927202D0927302D09274028B2D06
:1031A00082958F700E942A02809375028B2D8F70FA
:1031B0000E942A028093760289E380937702C0926C
:1031C00078028AE08DA391E080E0209107012B3204
:1031D00009F090E0292F382FA7E0B1E00D900020F2
:1031E000E9F7AD0148505140F901E95FFE4F96E41F
:1031F0002417350708F051C0A8958DA1B9016F5F5C
:103200007F4FA82FB0E0A959BD4F6417750718F478
:10321000618161113CC018969C938F5F8DA3608182
:103220008DA1A82FB0E08F5FA959BD4F611132C0A9
:1032300018969C938DA32E5F3F4F3296D9CF813045
:1032400011F4116124CF823011F4126120CF833048
:1032500009F01DCF13611BCF2FA500E0D12CC12C8D
:10326000283009F036CF37E4E316F10418F0F6E41D
:10327000EF2EF12C0E2D000FC02ED12C4DE0C40EE0
:10328000D11C27CF69015EE0C50ED11C22CF189654
:103290006C93C3CF18966C93CDCFDDA0ED2DF0E0ED
:1032A000E959FD4F80E38087E1E0ED0DF0E0E95959
:1032B000FD4F8087812F82958F700E942A02E2E065
:1032C000ED0DF0E0E959FD4F80878FA50E942A029D
:1032D000E3E0ED0DF0E0E959FD4F8087802F829506
:1032E0008F700E942A02E4E0ED0DF0E0E959FD4FF5
:1032F0008087802F8F700E942A02E5E0ED0DF0E0BC
:10330000E959FD4F8087E6E0ED0DEDA3F0E0E959C6
:10331000FD4F1086A8956FE672E0C1010E94F70884
:1033200024EF31E040E050E060E0C1010E94BE0ABD
:10333000C1010E940C091DA210E000E050E3752EAF
:1033400063E3662EE114F10409F4B5C1A895FEA665
:10335000EDA6B9E1EB16F10420F0E8E1F0E0FEA7FC
:10336000EDA72DA53EA5E21AF30A3FA531118BC0AA
:10337000A80147595E4F5A0180E0512CA895D5010C
:103380008D905D01D12CC12C912CA89541E050E08D
:1033900060E070E0082E04C0440F551F661F771FC1
:1033A0000A94D2F794010C2C02C0359527950A9403
:1033B000E2F720FF65C0542A8F5F8830D0F04DA01F
:1033C000852D82958F700E942A02E42DF0E0E95944
:1033D000FD4F8087852D8F700E942A02E1E0E40D69
:1033E000F0E0E959FD4F8087439443944DA280E07B
:1033F000512CFFEFCF1ADF0A27E0C216D10429F6BD
:103400009501201B310B29563140EDA5FEA52E1745
:103410003F0708F4B3CF8823C1F0DDA0852D829546
:103420008F700E942A02ED2DF0E0E959FD4F808750
:10343000852D8F700E942A02E1E0ED0DF0E0E95940
:10344000FD4F8087D394D394DDA24DA55EA5040FD4
:10345000151FEDA1F0E0E959FD4F10866FE672E00F
:10346000C1010E94F70824EF31E040E050E060E045
:10347000C1010E94BE0AC1010E940C091DA262CFB7
:103480004095542299CF5FA5583019F7A9E6B1E0CD
:103490000D900020E9F7CD018A5691402091E80275
:1034A0002130B9F6512C412C9C01332739AB28AB84
:1034B00041E3842E4BC0C60187599E4FFC01C0805A
:1034C000F0ED9F1286C00E5F1F4F18967C92E4E3CA
:1034D000DB011896EC93BDA2F1E8CF120EC0EB2DE4
:1034E000F0E0E959FD4F7086E3E0EA0DF0E0E959BC
:1034F000FD4F808684E08A0D8DA380E78C0D80339C
:10350000F8F42C2D2058330B6901BDA0C90124E02B
:10351000959587952A95E1F70E942A02EB2DF0E018
:10352000E959FD4F80878C2D8F700E942A02E1E0BF
:10353000EB0DF0E0E959FD4F8087B394B394BDA241
:10354000EDA5FEA5E415F50509F483CF48A959A911
:103550000417150708F07DCFA895F801E759FE4F2D
:10356000908068015FEFC51AD50A8FEF481A580A94
:10357000992009F46ECFADA0AA2DB0E0E1E0EA0DEC
:10358000F0E032E0B32EBA0CA959BD4FBF01695922
:103590007D4F97FC90CF18967C92DB0118967C9219
:1035A000892D82958F700E942A02EB2DF0E0E95957
:1035B000FD4F8087892D8F700E942A02E3E0EA0D7B
:1035C000F0E0E959FD4F808784E08A0D8DA38601E4
:1035D000B7CF31ED931237C00E5F1F4F18967C9214
:1035E000E4E3DB011896EC93BDA2F1E9CF120FC022
:1035F000EB2DF0E0E959FD4F25E32087E3E0EA0DEC
:10360000F0E0E959FD4F808684E08A0D8DA380E8C3
:103610008C0D803108F094CFDDA084E00E942A0256
:10362000ED2DF0E0E959FD4F80878C2D8F700E94C1
:103630002A02E1E0ED0DF0E0E959FD4F8087D394D7
:10364000D394DDA27DCF2B2D30E083E08A0D90E076
:1036500044E04A0D29593D4F89599D4F5FED591559
:1036600080F00E5F1F4F18967C92E4E3DB01189602
:10367000EC93D90118966C9226E4FC0120874DA3A7
:103680005FCF5FEE591570F00D5F1F4F18967C925B
:10369000DB0118967C92F9016086E6E4DC0118965D
:1036A000EC93EDCFF7EFF91518F00C5F1F4FEECF4D
:1036B0000B5F1F4FEBCF6EE870E0C1010E94F7086F
:1036C00020E137E240E050E061E0C1010E94BE0A23
:1036D000C1010E940C0962E272E0CE014F960E9485
:1036E0007E0840E0BE01615E7F4FCE0185960E945C
:1036F000F101CE014F960E940C09809106018111C3
:1037000012C00E949F05613C744D8140910558F0A4
:1037100081E08093060160E08CE00E94DA0461E0C1
:103720008DE00E94DA0480E090E0892B11F40C9483
:10373000D20F0E94F903882311F40C94D20F0E9437
:1037400000000C94CE0FA895D8CF002329F080E07C
:103750000F5F81110C9457134F2D50E08D2D90E089
:10376000FA01E959FD4FA7E0B1E060E09F01241B99
:10377000350B275632402817390710F00C94931355
:10378000A8952185322F3F7D363411F02C936F5F41
:103790002085322F3F7D363421F011962C931197DE
:1037A0006F5F32961296E2CFFB01DC0105900D921D
:1037B0000020E1F70895FC0105900020E9F78095CD
:1037C00090958E0F9F1F0895BB274A3031F499239F
:1037D00022F4BDE2909581959F4F0C94F01BBB277E
:1037E000FB015527AA27880F991FAA1FA41710F0BD
:1037F000A41B83955051B9F7A05DAA3308F0A95DC9
:10380000A193009779F7B111B1931192CB010C9468
:10381000091CDC01FC01672F71917723E1F73297D6
:1038200004C07C916D9370836291AE17BF07C8F39B
:103830000895E199FECF9FBB8EBBE09A99278DB387
:103840000895262FE199FECF9FBB8EBB2DBB0FB6EF
:10385000F894E29AE19A0FBE019608950E94701CB6
:10386000A59F900DB49F900DA49F800D911D1124D4
:1038700008952F923F924F925F926F927F928F9214
:103880009F92AF92BF92CF92DF92EF92FF920F93EF
:103890001F93CF93DF93CDB7DEB7CA1BDB0B0FB6F9
:1038A000F894DEBF0FBECDBF09942A8839884888B6
:1038B0005F846E847D848C849B84AA84B984C8844C
:1038C000DF80EE80FD800C811B81AA81B981CE0F43
:1038D000D11D0FB6F894DEBF0FBECDBFED01089528
:1038E000A29FB001B39FC001A39F700D811D112441
:1038F000911DB29F700D811D1124911D0895991B7A
:1039000079E004C0991F961708F0961B881F7A95D6
:10391000C9F780950895AA1BBB1B51E107C0AA1FD8
:10392000BB1FA617B70710F0A61BB70B881F991F60
:103930005A95A9F780959095BC01CD01089597FB04
:10394000072E16F4009407D077FD09D00E948B1C37
:1039500007FC05D03EF4909581959F4F0895709592
:1039600061957F4F0895A1E21A2EAA1BBB1BFD0192
:103970000DC0AA1FBB1FEE1FFF1FA217B307E4074E
:10398000F50720F0A21BB30BE40BF50B661F771FA6
:10399000881F991F1A9469F7609570958095909586
:1039A0009B01AC01BD01CF010895B7FF0C942E1C03
:1039B0000E942E1C821B930B0895EE0FFF1F059093
:1039C000F491E02D09940F931F93CF93DF938230EE
:1039D000910510F482E090E0E091EC02F091ED02AC
:1039E00030E020E0B0E0A0E0309799F421153105F7
:1039F00009F44AC0281B390B24303105D8F58A81D7
:103A00009B816115710589F1FB0193838283FE011E
:103A100011C0408151810281138148175907E0F09C
:103A20004817590799F4109761F012960C93129762
:103A300013961C933296CF01DF91CF911F910F9176
:103A400008950093EC021093ED02F4CF2115310597
:103A500051F04217530738F0A901DB019A01BD016B
:103A6000DF01F801C1CFEF01F9CF9093ED02809310
:103A7000EC02CDCFFE01E20FF31F81939193225010
:103A8000310939832883D7CF2091EA023091EB02A4
:103A9000232B41F420916200309163003093EB02BC
:103AA0002093EA02209160003091610021153105D8
:103AB00041F42DB73EB74091640050916500241B3E
:103AC000350BE091EA02F091EB02E217F307A0F464
:103AD0002E1B3F0B2817390778F0AC014E5F5F4F64
:103AE0002417350748F04E0F5F1F5093EB024093A9
:103AF000EA02819391939FCFF0E0E0E09CCFCF93D7
:103B0000DF930097E9F0FC01329713821282A091B3
:103B1000EC02B091ED02ED0130E020E01097A1F44D
:103B200020813181820F931F2091EA023091EB02B4
:103B30002817390709F061C0F093EB02E093EA021D
:103B4000DF91CF910895EA01CE17DF07E8F54A81AA
:103B50005B819E0141155105B1F7E901FB83EA83C1
:103B600049915991C40FD51FEC17FD0761F480816D
:103B700091810296840F951FE90199838883828140
:103B800093819B838A83F0E0E0E012968D919C9173
:103B900013970097B9F52D913C911197CD0102969D
:103BA000820F931F2091EA023091EB022817390708
:103BB00039F6309751F51092ED021092EC02B09365
:103BC000EB02A093EA02BCCFD383C2834081518130
:103BD000840F951FC817D90761F44E5F5F4F888126
:103BE0009981480F591F518340838A819B81938318
:103BF00082832115310509F0B0CFF093ED02E093F7
:103C0000EC029ECFFD01DC01C0CF13821282D7CF20
:103C1000B0E0A0E0EEE0FEE10C943B1C8C010097CC
:103C200051F4CB010E94E31C8C01C801CDB7DEB773
:103C3000E0E10C94571CFC01E60FF71F9C01225099
:103C40003109E217F30708F49DC0D901CD91DC9149
:103C50001197C617D70798F0C530D10530F3CE01BC
:103C600004978617970708F3C61BD70B2297C193B3
:103C7000D1936D937C93CF010E947F1DD6CF5B01C2
:103C8000AC1ABD0A4C018C0E9D1EA091EC02B091A5
:103C9000ED02512C412CF12CE12C109731F5809143
:103CA000EA029091EB028815990509F05CC046166E
:103CB000570608F058C0809160009091610000970D
:103CC00041F48DB79EB74091640050916500841B0C
:103CD000950BE817F90708F055C0F093EB02E09355
:103CE000EA02F90171836083A0CF8D919C911197B5
:103CF00012966C90129713967C901397A815B9059D
:103D000059F56C0142E0C40ED11CCA14DB0420F149
:103D1000AC014A195B09DA011296159780F06282AC
:103D2000738251834083D9016D937C93E114F10434
:103D300071F0D7011396FC93EE93129776CF2296EB
:103D40008C0F9D1FF90191838083F301EFCFF093D6
:103D5000ED02E093EC0269CF4816590608F42C01F5
:103D60007D01D3019ACFCB010E94E31C7C01009717
:103D700049F0AE01B8010E94C51EC8010E947F1D16
:103D8000870153CF10E000E050CFFB01DC0102C0FF
:103D900001900D9241505040D8F70895FB01DC018D
:0E3DA00001900D920020E1F70895F894FFCFF6
:103DAE000000EE028000000000002E049E03ED03D2
:103DBE00CB03DF037504000000002306F605EF05B4
:103DCE00DC05CD05CC050D0A0031323334001A0066
:00000001FF
